:020000040000FA
:020000000C28CA
:10000800FE00030EC7000408C8000A08C9008428B7
:100018000D28E320CA00E420CB00E520CC00E62030
:10002800CD00E720CE00E820CF00E920D000D501A0
:10003800D6018301BB28050CC000C00C400C013957
:10004800C100C2014108C3004208C4004308440477
:1000580003192F2830287828FC20F930C0003428CC
:10006800C00B332837283828D41B4D285408031DC3
:100078004C2801305302031D4928E8305202031D61
:10008800492848305102031D492803184C284D2897
:100098005628560E0F39C000C1014008C500410856
:1000A800C6005D28EF20C000C1014008C500410816
:1000B800C6004508C000C00E560840060F39400665
:1000C800D600560E0F394A3E8400000887000530D6
:1000D800C200C230C1008330C000C00B7128C10B00
:1000E8007128C20B71288028F920F930C0007C28BB
:1000F800C00B7B287F2880284A0887008B150800BA
:100108008B1D8728882890280B1C8B288C289028E2
:100118008B119C111F209E280B1F932894289E2822
:100128008D1C972898289E288C1C9B289C289E28E4
:100138008C10A72049088A0048088400470E8300CD
:10014800FE0E7E0E09008C1CAA28AB28BA288C103B
:100158000130D107003003180130D20700300318EE
:100168000130D307003003180130D4070800D2202B
:100178008B170030D4000030D3000030D20000309C
:10018800D1006300BD280C288701860188018901F8
:100198008E179C119B159A158B1508000F30D605E4
:1001A800F030D605C820EA20F320DB2008009201B1
:1001B80091018C108D140430930013110800003441
:1001C800043402340634013404340334103090000B
:1001D800A601BF010800F62056080F39080016309E
:1001E800B0000800F030D60508009101131508008A
:0401F80013110800D7
:02400E00A03CD4
:00000001FF
